:020000040800F2
:1000000088080020D9010008930E0008D10D0008CF
:10001000910E0008E5020008311000080000000001
:10002000000000000000000000000000850F000834
:10003000E702000800000000950E0008870F000886
:10004000F3010008F3010008F3010008F3010008C0
:10005000F3010008F3010008F3010008F3010008B0
:10006000F3010008F3010008F3010008F3010008A0
:10007000F3010008F3010008F3010008F301000890
:10008000F3010008F3010008F3010008F301000880
:10009000F3010008F3010008F3010008F301000870
:1000A000F3010008F3010008F3010008F301000860
:1000B000F3010008F3010008F3010008F301000850
:1000C000F3010008F3010008F3010008F301000840
:1000D000F3010008F3010008F3010008F301000830
:1000E000F3010008F3010008F3010008F301000820
:1000F000F3010008F3010008F3010008F301000810
:10010000F3010008F3010008F3010008F3010008FF
:10011000F3010008F3010008F3010008F3010008EF
:10012000F3010008F3010008F3010008F3010008DF
:10013000F30100080000000000000000F3010008C7
:10014000F3010008F3010008F3010008F3010008BF
:10015000F3010008F3010008F3010008F3010008AF
:10016000F3010008F3010008F3010008F30100089F
:10017000F3010008F3010008F3010008000000008B
:1001800000000000F3010008000000000000000073
:10019000F30100080000000000000000F301000867
:1001A000000000000000000000000000F301000853
:1001B000F3010008F3010008F3010008F30100084F
:1001C000F3010008DFF80CD000F07AF8004800478F
:1001D000511100088808002006488047064800475B
:1001E000FEE7FEE7FEE7FEE7FEE7FEE7FEE7FEE7E7
:1001F000FEE7FEE715100008C50100082DE9F05FD5
:100200000546002092469B46884606468146402485
:100210001BE0284641464746224600F041F8534637
:100220005A46C01A914110D311461846224600F092
:1002300028F82D1A67EB01084F46224601200021BD
:1002400000F01FF817EB00094E41201EA4F1010435
:10025000DFDC484631462A464346BDE8F09FD2B22D
:1002600001E000F8012B491EFBD270470022F6E79F
:1002700010B513460A4604461946FFF7F0FF20461C
:1002800010BD202A04DB203A00FA02F1002070475A
:100290009140C2F1200320FA03F3194390407047C4
:1002A000202A04DB203A21FA02F00021704721FACB
:1002B00002F3D040C2F12002914008431946704732
:1002C000064C074D06E0E06840F0010394E80700A3
:1002D00098471034AC42F6D3FFF778FF0C3D000886
:1002E0002C3D0008FEE7704770B5044600F0E8F8C2
:1002F0000546601C02D004480078044400F0E0F891
:10030000401BA042FAD370BD200000202DE9F84F19
:1003100000224FF0010803254FF00F0E0B6808FA7A
:1003200002F42340A3426ED14E68012E05D0022E66
:1003300003D0112E01D0122E12D186684FEA420C42
:1003400005FA0CF7BE43CF6807FA0CF7374387600E
:100350004668A6430C79C4F30014944034434460C7
:10036000C668570005FA07FC8C6826EA0C06BC40F4
:100370003443C4604C68022C01D0122C13D1D40831
:1003800000EB8404A346D4F8209054074FEAD46AC3
:100390000EFA0AF629EA06090E6906FA0AF646EA8C
:1003A0000906CBF8206006680C7926EA0C0604F0F2
:1003B0000304BC40344304604C68E40060D5334C13
:1003C000266846F480462660246822F0030604F47A
:1003D000804400942E4C3444A446D4F80848960730
:1003E000370F0EFA07F6B4432A4EB04201D1002669
:1003F0001FE0294EB04201D101261AE0274EB0423B
:1004000002D1022615E03BE0254EB04201D1032681
:100410000FE0244EB04201D104260AE0224EB04241
:1004200001D1052605E0214EB04201D1062600E0AB
:100430000726BE402643CCF808681D4E34684F6836
:100440009C43FF0300D51C433460194E361D3468AD
:100450004F689C43BF0300D51C433460144E0836DC
:1004600034684F689C43FF0200D51C433460104E33
:100470000C3634684F689C43BF0200D51C4334607F
:10048000521C102AFFF44AAFBDE8F88F44380240EE
:100490000030014000000240000402400008024019
:1004A000000C0240001002400014024000180240FC
:1004B000003C01400AB1816170470904FBE700007C
:1004C00001488068704700002000002002488168D1
:1004D0000278114481607047200000200B4810B55D
:1004E000016841F400710160016841F480610160BC
:1004F000016841F480710160032000F061F8002080
:1005000000F006F800F024F8002010BD003C024086
:1005100070B50D4D04464FF47A712878B1FBF0F0B8
:100520000A490968B1FBF0F000F03EFC48B9102C14
:1005300007D200222146501E00F022F800206C60F5
:1005400070BD012070BD0000200000202C000020A4
:100550000A4808B5016841F480410160006800F470
:10056000804000900548001F016841F08051016003
:10057000006800F08050009008BD00004438024040
:10058000F0B40E4B1B680C46C3F30223C3F10705FE
:10059000042D00D90425191D072901D2002300E0EC
:1005A000DB1E012606FA05F1491E214099409E40B6
:1005B000761E16403143F0BC00F03BBD0CED00E070
:1005C000064900F0070208684FF6FF03184040EAAA
:1005D0000220034A10430860704700000CED00E061
:1005E0000000FA052DE9F8431748016841F08051F1
:1005F00001600068154F00F08050012600903E64B5
:10060000FFF75EFF05464FF47A78114C05E000BF16
:10061000FFF756FF401B40450DD86068C003F7D573
:100620007E64FFF74DFF0546464607E0FFF748FFAB
:10063000401BB04202D90320BDE8F8836068800304
:10064000F4D50020F8E700004038024000000E42D8
:10065000007000402DE9F0470E46050065D0DFF838
:100660001481D8F80000F7B200F00F00B04207D2B2
:1006700088F80070D8F8000000F00F00B04254D1A4
:1006800028683D4C810712D5400703D5206840F407
:10069000E05020602878000703D5206840F46040CF
:1006A00020602068A96820F0F000084320602878C6
:1006B000C0072DD0304968680839012812D00228B7
:1006C00013D0032811D00968890700292DDA216881
:1006D00021F0030101432160FFF7F2FE814641F260
:1006E000883A0EE009688903EFE709688901ECE7B9
:1006F000FFF7E6FEA0EB0901514502D90320BDE852
:10070000F0872068696800F00C00B0EB810FEFD132
:10071000D8F80010404601F00F01B14207D9077028
:10072000006800F00F00B04201D00120E7E7287810
:10073000400705D52068E96820F4E05008432060B0
:100740002878000706D52068296920F4604040EA2F
:10075000C100206000F018F82168084AC1F30311B5
:10076000515CC8400649086006480068FFF7D0FEA3
:100770000020C4E7003C024008380240FC3C00086E
:100780002C00002024000020224810B5006810F042
:100790000C02214815D02149042A11D01D4C241FD8
:1007A000082A0FD00C2A0CD12268236802F03F02DD
:1007B0005B0221D52068C0F38810A0FB010120E076
:1007C000084610BD2268236802F03F025B0205D58F
:1007D0002068C0F38810A0FB010104E02168C1F388
:1007E0008811A1FB00010023FFF708FD2168C1F378
:1007F0000141491C49000AE02168C1F38811A1FBAD
:1008000000010023FFF7FAFC2168C1F30271B0FB7D
:10081000F1F010BD083802400024F40040787D015A
:100820002DE9F84F0546DFF828B30078ABF104074F
:10083000C007A7F1040451D0DBF800105846C1F3FB
:10084000810101290FD00168C1F38101022902D180
:100850003968490207D40068C0F38100032809D130
:100860003868400206D52068800337D568680028BC
:1008700072D033E06868B0F5803F10D0B0F5A02F9B
:10088000206810D020F480302060206820F4802080
:1008900020606868A8B1FFF713FE06460DE02068E7
:1008A00040F48030F4E740F480202060F7E700BF98
:1008B000FFF706FE801B642878D820688003F7D5F0
:1008C0000CE0FFF7FDFD064605E000BFFFF7F8FD71
:1008D000801B6428F0D820688003F7D42878DFF8DC
:1008E000749280074FF0000A46D5DBF80010584696
:1008F00011F00C0F0FD00168C1F38101022902D160
:100900003968490207D50068C0F38100032809D17E
:100910003868400206D42068800715D5E8680128A9
:100920001AD111E0E868C0B10120C9F80000FFF752
:10093000C7FD064605E000BFFFF7C2FD801B022889
:10094000BAD820688007F7D52068296920F0F80018
:1009500040EAC10020600FE0F7E0C9F800A0FFF70F
:10096000AFFD064605E000BFFFF7AAFD801B022889
:100970001CD820688007F7D42878000727D5DFF82F
:10098000D0817548696908F16C0881B10121016065
:10099000FFF796FD064604E0FFF792FD801B022854
:1009A00004D8D8F800008007F6D510E089E0C0F838
:1009B00000A0FFF785FD064605E000BFFFF780FDBC
:1009C000801B02287DD8D8F800008007F6D428784C
:1009D000400769D55E484FF0000838300068C00015
:1009E0000BD45B483830016841F0805101600068E9
:1009F0004FF0010800F080500090584E3068C0055C
:100A000011D4306840F480703060FFF759FD0090D9
:100A100006E000BFFFF754FD0099401A022850D8A5
:100A20003068C005F6D54A4EA868683601280FD050
:100A30000528306810D020F001003060306820F0C8
:100A400004003060A868B8B1FFF73AFD00900FE0ED
:100A5000306840F00100F4E740F004003060F7E750
:100A6000FFF72EFD0099411A41F28830814264D887
:100A700030688007F4D50EE0FFF722FD009007E014
:100A8000FFF71EFD0099411A41F28830814254D887
:100A900030688007F4D4B8F1000F05D02C48383006
:100AA000016821F080510160A869A8B3DBF800104B
:100AB000C1F38101022948D00228C9F860A005D0FD
:100AC00000E03AE0FFF7FCFC054639E0FFF7F8FCF0
:100AD000064604E0FFF7F4FC801B02282DD82068AE
:100AE0008001F7D4F5E907010843E9681C4A490881
:100AF00002EB0141AA6841EA82110843297C40EADD
:100B00000160297D40EA017038600120C9F8600069
:100B1000FFF7D6FC054606E015E000BFFFF7D0FC66
:100B2000401B022809D820688001F7D50BE000BFE0
:100B3000FFF7C6FC401B022802D90320BDE8F88F4E
:100B400020688001F4D40020F8E70120F6E70000D7
:100B50000838024000004742800E474200700040C3
:100B60000000FFFF70B5040005D00025A56294F8D1
:100B7000510010B106E0012070BD84F850502046AD
:100B800000F030F8022084F851002068016821F05C
:100B900040010160D4E901010843D4E90312114383
:100BA000084361690843218B01F400710843E1693E
:100BB0000843216A0843A16A084321680860A069C4
:100BC000042101EA1040616A0843216848602068F6
:100BD000C16921F40061C1616565012084F851009B
:100BE000002070BD10B586B0044614216846FFF79A
:100BF0003DFB13492068884220D112480021026839
:100C000042F480520260006800F4805005900D4864
:100C10001438026842F002020260006800F002002C
:100C20000590382000900220CDE9010103200390B7
:100C30000520049069460448FFF768FB06B010BD24
:100C40000030014044380240000402402DE9F84FD2
:100C5000044690F8500000271D4616468946012894
:100C60000DD04FF0010B84F850B0FFF729FC8046FF
:100C700094F85100BA46012804D002278EE00220E1
:100C8000BDE8F88FB9F1000F7DD0002E7BD0032096
:100C900084F85100C4F854A0C4F83090A686E686C3
:100CA000C4F838A0A4F83CA0A4F83EA0C4F844A01E
:100CB000C4F840A0A068B0F5004F04D120680168D6
:100CC00041F48041016020680168490603D401684D
:100CD00041F040010160E068B0F5006F606803D04A
:100CE00030B3012E24D040E008B1012E1CD1206B7E
:100CF00021680088C86006E020688168890709D5F6
:100D0000216B0988C160206B801C2063E08E401E2F
:100D1000E08609E0FFF7D4FBA0EB0800A84202D36D
:100D2000681C01D031E07DB3E08E0028E4D11FE0E3
:100D3000206B21680078087306E0206881688907C5
:100D400009D5216B09780173206B401C2063E08E6C
:100D5000401EE08609E0FFF7B3FBA0EB0800A842C5
:100D600002D3681C01D010E075B1E08E0028E4D1F8
:100D700042462946204600F08FF808B120206065E1
:100D8000A06820B107E008E0FFE7032706E020683D
:100D9000C16880680090606D00B1012784F851B08F
:100DA00084F850A038466BE710B5401EB0F1807F44
:100DB00001D3012010BD4FF0E02460610F216017C6
:100DC00000F037F90020A06107202061002010BD4D
:100DD000FEE700002DE9F04186B014216846FFF7D8
:100DE00045FA1B480024016841F0010101600168D7
:100DF00001F001010591016841F002010160006804
:100E0000144F00F002004FF4487505902246294621
:100E10003846FFF74FFBDFF840803E150022314691
:100E20004046FFF747FB00950125CDE9015469468F
:100E300038460394FFF76AFA0096CDE901546946F3
:100E400040460394FFF762FA06B0BDE8F081000067
:100E50003038024000000240000402400B480A49BA
:100E60004FF4007201604FF4827141600021816093
:100E7000C1600161C0E90512C16101624162816224
:100E80000A21C162FFF76EBE003001403000002031
:100E9000FEE770477047000038B504461248134B10
:100EA0000068B0FBF3F04FF47A7358430090606829
:100EB000B0F5827F0DD10B460092002280212046A2
:100EC00000F016F870B1606D40F0200060650320FE
:100ED00038BD009830B1401E009020688068C04343
:100EE0000006F6D5002038BD2C00002000366E012B
:100EF0002DE9F0411D4617460E460446DDF81880E0
:100F000008E0681C06D0FFF7DBFAA0EB0800A84257
:100F10000BD255B12068806836EA000030D000203E
:100F2000B842EED10020BDE8F0812068416821F090
:100F3000E00141606068B0F5827F0BD1A068B0F538
:100F4000004F02D0B0F5806F04D12068016821F015
:100F500040010160A06AB0F5005F09D12068016816
:100F600021F4005101602068016841F400510160E2
:100F7000012084F85100002084F850000320D2E7BB
:100F80000120CDE77047FFF7A1BA000030B593B05C
:100F900034216846FFF76AF914210DA8FFF766F9B6
:100FA0001A480025016841F080510160006800F096
:100FB000805012901648016841F440410160006879
:100FC000022400F44040129001200390102004906D
:100FD000009406940820CDE90750B420CDE9090417
:100FE0000B9468460C94FFF71BFCFFF7FBFA0DA966
:100FF0000F2081E831004FF4A0501090E0021190D2
:1010000005210DA8FFF726FB13B030BD4038024084
:10101000007000400548016841F470010160034917
:101020004FF00060803908607047000088ED00E0F4
:10103000FEE70907090E002804DB00F1E02080F834
:101040000014704700F00F0000F1E02080F8141D3C
:10105000704702E008C8121F08C1002AFAD1704781
:101060007047002001E001C1121F002AFBD1704728
:1010700010B5002000F09EF80021BDE810400220CD
:1010800000F056B910B500F0A5F8012000F092F874
:1010900012210C2000F04CF90F480023D0E9001277
:1010A0000EA000F00BFA00F055F94FF47A742046C8
:1010B000FFF71AF93021122000F03AF9094800230D
:1010C000D0E9001208A000F0F9F900F043F9204639
:1010D000BDE81040FFF708B918000020706F6C736E
:1010E0006571000008000020696E697469616C69AF
:1010F0007A696E670000000010B50446002000F019
:1011000059F80021022000F013F90D480123D0E91D
:1011100000120CA000F0D2F91A212A2000F008F9E0
:10112000204600F0BDF80949012306C900F0C6F9C0
:1011300000F010F9BDE810406420FFF7D5B80000BA
:1011400010000020737465703A2000001800002021
:10115000FFF7C4F9FFF71AFFFFF73CFEFFF77EFE2B
:10116000FFF790FFFFF784FF01242046FFF7C4FF3D
:10117000641CFAE770B5802813D2402911D20B4BBA
:10118000012401F007051E79AC40094BC90800EBAA
:10119000C1100EB132B101E0012A03D0195CA143A4
:1011A000195470BD195C2143FAE7000000000020CB
:1011B0008800002010B5064A00214FF4806328B152
:1011C000FF245454491C9942F9D310BD0024F8E778
:1011D0008800002010B500F085F86420FFF784F83F
:1011E000002000F0ABF8202000F020F9002000F0F3
:1011F0001DF9B02000F01AF9C82000F017F90020FE
:1012000000F014F9102000F011F9402000F00EF960
:10121000FF2000F083F8A12000F008F9A62000F0DC
:1012200005F9A82000F002F93F2000F0FFF8A42003
:1012300000F0FCF8D32000F0F9F8002000F0F6F8F8
:10124000D52000F0F3F8F02000F0F0F8D92000F0FD
:10125000EDF8222000F0EAF8DA2000F0E7F812209A
:1012600000F0E4F8DB2000F0E1F8202000F0DEF8E8
:101270008D2000F0DBF8142000F0D8F8012000F0F9
:101280005DF80020FFF796FF00F064F803480021A6
:10129000018041800121417110BD0000000000204B
:1012A00070B50021C0B003460A2202E093FBF2F3BE
:1012B000491C002BFAD16D460CE000BFB0FBF2F4E4
:1012C00002FB1404B0FBF2F0CE1A2E44303406F8C0
:1012D000014C5B1C8B42F1DB0020685440B0284677
:1012E00070BD000070B50C4C012251022046FFF782
:1012F000E1F8A515002229462046FFF7DBF80A2071
:10130000FEF7F2FF012229462046FFF7D3F8BDE899
:1013100070400A20FEF7E8BF0000024010B5044606
:10132000812000F083F82046BDE8104000F07EB830
:10133000014A10805180704700000020044910B11C
:10134000AF20012201E0AE2000228A7100F06EB8C9
:101350000000002070B50C4D002400BF04F1B00067
:10136000C0B200F063F8002000F060F8102000F038
:101370005DF805EBC410802100F07AF8641CE4B23B
:10138000082CEBD370BD0000880000202DE9FF4F32
:1013900093460098A0F1200ABAF15F0F0CD22248C0
:1013A000CEB202883244802A06D881464088C1F3F2
:1013B00007273844402803D9002004B0BDE8F08F47
:1013C000002525E01AFB07513BF8118000241CE0A2
:1013D00008FA04F0000409D599F8021099F8000001
:1013E00029442044C9B2C0B2039A0BE00398C0B1AB
:1013F0005FF0000299F8021099F800002944204497
:10140000C9B2C0B2FFF7B6FE641CA642E0D86D1C9C
:10141000AF42D7D8B9F800103144A9F800100098AD
:10142000CBE70122E6E700000000002031B50D4DBA
:101430004FF40074002221462846FFF73BF80022B3
:1014400061000948FFF736F84FF0FF330122694683
:101450000648FFF7FBFB012221462846FFF72AF842
:1014600038BD0000000002400004024030000020AF
:101470002DE9F0410E4F0C4605464FF40076002250
:1014800031463846FFF716F8012291020948FFF766
:1014900011F8A2B24FF0FF3329460748FFF7D6FBF9
:1014A00031463846BDE8F0410122FFF703B800009D
:1014B000000002400004024030000020F0B51D464C
:1014C0000E46174604460AE02B463A463146FFF7D9
:1014D0005DFF2178884201D0C8B2F0BD641C20783D
:1014E0000028F1D1C0B2F0BD0000000000000000F3
:1014F00000000000000000000000000000100010CC
:10150000001000100010001000000010000000008B
:101510000028002800280000000000000000000053
:101520000000000000240024007C00240048007C0F
:101530000048004800000000003800540050003807
:101540000014005400540038001000000020005423
:10155000005800300028005400140008000000006B
:101560000010002800280010003400480048003413
:10157000000000000010001000100000000000003B
:101580000000000000000000000800100020002003
:101590000020002000200020001000080020001083
:1015A00000080008000800080008000800100020DB
:1015B00000100038001000280000000000000000AB
:1015C000000000000000000000100010007C00106F
:1015D00000100000000000000000000000000000FB
:1015E00000000000000000100010001000000000CB
:1015F00000000000000000380000000000000000B3
:1016000000000000000000000000000000000010CA
:10161000000000000008000800100010001000107A
:101620000020002000000000003800440044005466
:101630000044004400440038000000000010003066
:1016400000500010001000100010001000000000FA
:101650000038004400440004000800100020007C12
:1016600000000000003800440004001800040004DA
:10167000004400380000000000080018002800287E
:101680000048007C0008000800000000007C0040CA
:10169000004000780004000400440038000000000E
:1016A0000038004400400078004400440044003802
:1016B00000000000007C0004000800100010002062
:1016C00000200020000000000038004400440038E2
:1016D000004400440044003800000000003800448A
:1016E00000440044003C00040044003800000000B6
:1016F00000000000001000000000000000000010CA
:1017000000000000000000000000001000000000C9
:10171000000000100010001000000000000C00305D
:1017200000400030000C000000000000000000003D
:101730000000007C0000007C0000000000000000B1
:1017400000000000006000180004001800600000A5
:1017500000000000003800440004000800100010E1
:10176000000000100000000000380044004C00544D
:10177000005C00400040003800000000001000281D
:10178000002800280028007C0044004400000000DD
:10179000007800440044007800440044004400788D
:1017A00000000000003800440040004000400040BD
:1017B000004400380000000000700048004400446D
:1017C000004400440048007000000000007C00401D
:1017D0000040007C004000400040007C0000000011
:1017E000007C004000400078004000400040004085
:1017F000000000000038004400400040005C00444D
:101800000044003800000000004400440044007C14
:101810000044004400440044000000000038001070
:101820000010001000100010001000380000000030
:101830000004000400040004000400040044003814
:1018400000000000004400480050006000500048C4
:1018500000480044000000000040004000400040FC
:10186000004000400040007C000000000044006C8C
:10187000006C005400440044004400440000000098
:1018800000440064006400540054004C004C0044C8
:1018900000000000003800440044004400440044BC
:1018A0000044003800000000007800440044004478
:1018B0000078004000400040000000000038004474
:1018C0000044004400440044005400380004000078
:1018D0000078004400440044007800480048004478
:1018E0000000000000380044004000300008000400
:1018F0000044003800000000007C001000100010C0
:10190000001000100010001000000000004400440F
:10191000004400440044004400440038000000003B
:101920000044004400440028002800280010001053
:101930000000000000440044005400540054006CB7
:1019400000280028000000000044002800280010A3
:10195000001000280028004400000000004400445B
:1019600000280028001000100010001000000000E7
:10197000007C000400080010001000200040007CE3
:1019800000000000001800100010001000100010EF
:10199000001000100010001800200020001000109F
:1019A00000100010000800080000000000300010C7
:1019B0000010001000100010001000100010003087
:1019C0000010002800280044000000000000000073
:1019D0000000000000000000000000000000000007
:1019E00000000000000000FE0020001000000000C9
:1019F00000000000000000000000000000000000E7
:101A000000380044003C0044004C0034000000005A
:101A10000040004000580064004400440064005846
:101A200000000000000000000038004400400040BA
:101A30000044003800000000000400040034004CA2
:101A400000440044004C003400000000000000008E
:101A500000380044007C00400044003800000000D2
:101A6000000C0010007C001000100010001000108E
:101A700000000000000000000034004C004400445E
:101A8000004C00340004007800400040005800641E
:101A90000044004400440044000000000010000026
:101AA0000070001000100010001000100000000076
:101AB0000010000000700010001000100010001056
:101AC000001000E00040004000480050006000505E
:101AD00000480044000000000070001000100010DA
:101AE00000100010001000100000000000000000B6
:101AF00000780054005400540054005400000000CA
:101B00000000000000580064004400440044004409
:101B100000000000000000000038004400440044C1
:101B2000004400380000000000000000005800647D
:101B300000440044006400580040004000000000E1
:101B40000034004C00440044004C00340004000405
:101B500000000000005800640040004000400040C9
:101B600000000000000000000038004400300008C1
:101B70000044003800000000002000200078002011
:101B800000200020002000180000000000000000DD
:101B90000044004400440044004C003400000000B5
:101BA0000000000000440044002800280028001025
:101BB0000000000000000000005400540054006CBD
:101BC0000028002800000000000000000044002859
:101BD0000010001000280044000000000000000079
:101BE000004400440028002800100010001000608D
:101BF00000000000007C0008001000200040007C75
:101C0000000000000018001000100010002000204C
:101C1000001000100010001800100010001000103C
:101C20000010001000100010001000100030001014
:101C30000010001000080008001000100010003014
:101C40000000000000000074004C000000000000D4
:101C50000000000000000000000000000000000084
:101C60000000000000000000000000000000000074
:101C700000000000000000000000000C000C000C40
:101C8000000C000C000C000C000C000C000C000CF4
:101C90000000000C000C0000000000000000001B11
:101CA000001B001B001B001B0000000000000000C8
:101CB0000000000000000000000000000000000024
:101CC00000008019801980198019C07FC07F801999
:101CD0000033C07FC07F0033003300330033000087
:101CE000000000000000001E003F80758065007449
:101CF000003C001E00078005806580658075003F00
:101D0000001E0004000400000000007000D840D84D
:101D1000C0D880D900730006000C801BC036C06696
:101D2000C046C00680030000000000000000001E46
:101D3000003F003300330033001E000CC03CC0667F
:101D4000806380618063C03E801C00000000000052
:101D50000000000C000C000C000C000C0000000047
:101D60000000000000000000000000000000000073
:101D700000000000800000010003000600060004CF
:101D8000000C000C000C000C000C000C0004000601
:101D90000006000300018000002000100018000C65
:101DA000000C0004000600060006000600060006FF
:101DB0000004000C000C0018001000200000000CB3
:101DC000002D003F001E0033000000000000000056
:101DD0000000000000000000000000000000000003
:101DE000000000000000000C000C000C000CC0FF04
:101DF000C0FF000C000C000C000C000000000000F4
:101E000000000000000000000000000000000000D2
:101E10000000000000000000000000000000000CB6
:101E2000000C000400040008000000000000000096
:101E300000000000000000000000001E001E000066
:101E40000000000000000000000000000000000092
:101E50000000000000000000000000000000000082
:101E6000000000000000000C000C0000000000005A
:101E70000000000300030003000600060006000641
:101E8000000C000C000C000C0018001800180000DA
:101E9000000000000000001E003F003380618061F0
:101EA0008061806D806D8061806180610033003F62
:101EB000001E00000000000000000006000E001ED2
:101EC0000036002600060006000600060006000692
:101ED0000006000600060000000000000000001ED2
:101EE000003F807380618061800100030006000C68
:101EF000001800300060807F807F0000000000003C
:101F00000000001C003E006300630003000E000E92
:101F100000038001800180618073003F001E00008B
:101F20000000000000000006000E000E001E001E53
:101F30000016003600360066807F807F00060006AF
:101F400000060000000000000000007F007F00602D
:101F500000600060006E007F80638001800180610E
:101F60008073003F001E0000000000000000001E03
:101F7000003F803380610060006E007F807380616D
:101F8000806180618033003F001E0000000000007F
:101F90000000807F807F80010003000300060006B0
:101FA000000C000C000C00080018001800180000BD
:101FB000000000000000001E003F8063806180611F
:101FC0000021001E003F8061806180618061003FD0
:101FD000001E0000000000000000001E003F007313
:101FE0008061806180618073803F801D800180619D
:101FF0000073003F001E0000000000000000000011
:10200000000000000000000C000C000000000000B8
:10201000000000000000000C000C000000000000A8
:10202000000000000000000000000000000C000C98
:1020300000000000000000000000000C000C000484
:102040000004000800000000000000008000800381
:10205000000E003800600038000E80038000000091
:102060000000000000000000000000000000000070
:102070000000807F807F00000000807F807F000064
:102080000000000000000000000000000000000050
:102090000000000000400070001C000780010007E5
:1020A000001C007000400000000000000000000064
:1020B0000000001F803FC071C060C000C0018003ED
:1020C0000007000E000C000C0000000C000C0000CB
:1020D000000000000000001E003F8031807180631E
:1020E000806F806D806D806F806700600032003E81
:1020F000001C0000000000000000000E000E001B8D
:10210000001B001B001B80318031803F803F8031ED
:10211000C060C060C0600000000000000000007CE3
:10212000007E0063006300630063007E007E006346
:10213000806180618063007F007E000000000000FD
:102140000000001E003F8031806100600060006080
:1021500000600060006080618031003F001E000070
:10216000000000000000007C007F0063806380614D
:102170008061806180618061806100630063007EB6
:10218000007C0000000000000000807F807F006075
:10219000006000600060007F007F00600060006001
:1021A0000060807F807F0000000000000000807FD2
:1021B000807F0060006000600060007F007F006042
:1021C000006000600060006000600000000000002F
:1021D0000000001E003F80318061006000600060F0
:1021E00080638063806180618031803F001E0000D9
:1021F000000000000000806180618061806180617A
:102200008061807F807F806180618061806180618A
:1022100080610000000000000000003F003F000C53
:10222000000C000C000C000C000C000C000C000C4E
:10223000000C003F003F0000000000000000800193
:102240008001800180018001800180018001800186
:10225000806180618073003F001E0000000000006C
:102260000000C0608061006300660066006C00785A
:10227000007C00660066006380618061C0600000D1
:10228000000000000000006000600060006000606E
:102290000060006000600060006000600060807F9F
:1022A000807F0000000000000000C071C071C07B92
:1022B000C07AC06AC06AC06EC064C060C060C060DE
:1022C000C060C060C06000000000000000008071BD
:1022D0008071807980798079806D806D806D806576
:1022E0008067806780678063806300000000000073
:1022F0000000001E003F00338061806180618061CA
:1023000080618061806180610033003F001E0000B9
:10231000000000000000007E007F8063806180611B
:1023200080618063007F007E00600060006000606C
:1023300000600000000000000000001E003F0033AD
:10234000806180618061806180618061806580677B
:102350000033803F401E0000000000000000007EAF
:10236000007F8063806180618063007F007E006603
:102370000063006380618061C060000000000000B5
:102380000000000E001F8031803100300038001E38
:1023900000078003806180618031003F001E0000E3
:1023A000000000000000C0FFC0FF000C000C000C8B
:1023B000000C000C000C000C000C000C000C000CBD
:1023C000000C00000000000000008061806180615E
:1023D00080618061806180618061806180618061F5
:1023E0008073003F001E0000000000000000C0607D
:1023F000C060C060803180318031001B001B001B39
:10240000001B000E000E000E000400000000000083
:102410000000C0C0C0C0C0C0C0C0C0C0C0CC804CE4
:10242000804C805E805280528073806180610000A9
:10243000000000000000C0C0806080610033003BED
:10244000001E000C000C001E001F003B807180610C
:10245000C0C00000000000000000C0C080618061BA
:1024600000330033001E001E000C000C000C000C9A
:10247000000C000C000C0000000000000000803F79
:10248000803F8001000300030006000C000C0018D0
:10249000001800300060807F807F00000000000096
:1024A000000F000F000C000C000C000C000C000CC6
:1024B000000C000C000C000C000C000C000C000CBC
:1024C000000F000F0000001800180018000C000C8E
:1024D000000C000C000600060006000600030003C6
:1024E0000003000000000000001E001E00060006A1
:1024F00000060006000600060006000600060006AC
:102500000006000600060006001E001E0000000C6B
:10251000000C001E00120033003380618061000057
:1025200000000000000000000000000000000000AB
:10253000000000000000000000000000000000009B
:10254000000000000000000000000000000000008B
:10255000E0FF0000000000380018000C0000000040
:10256000000000000000000000000000000000006B
:10257000000000000000000000000000000000005B
:102580000000001F803F80618001801F803F8061CC
:102590008063807FC0380000000000000000006001
:1025A000006000600060006E007F80738061806169
:1025B000806180618073007F006E00000000000079
:1025C00000000000000000000000001E003F8073BB
:1025D00080610060006080618073003F001E000029
:1025E0000000000000008001800180018001801D4A
:1025F000803F807380618061806180618073803FF3
:10260000801D00000000000000000000000000002D
:102610000000001E003F00738061807F807F0060AB
:102620008071003F001E0000000000000000C00795
:10263000C00F000C000C807F807F000C000C000C91
:10264000000C000C000C000C000C0000000000004E
:102650000000000000000000801D803F807380614A
:102660008061806180618073803F801D8001806314
:10267000007F003E00000060006000600060006FAE
:10268000807F807180618061806180618061806114
:10269000806100000000000000000006000600004D
:1026A0000000003E003E0006000600060006000690
:1026B00000060006000600000000000000060006FC
:1026C00000000000003E003E000600060006000676
:1026D000000600060006000600060046007E003CDC
:1026E00000000060006000600060806100630066C0
:1026F000006C007C0076006300638061C0600000B5
:10270000000000000000003E003E0006000600063B
:102710000006000600060006000600060006000689
:1027200000060000000000000000000000000000A3
:10273000000080DDC0FFC0CEC0CCC0CCC0CCC0CCBF
:10274000C0CCC0CCC0CC00000000000000000000E5
:10275000000000000000006F807F80718061806158
:102760008061806180618061806100000000000004
:1027700000000000000000000000001E003F807309
:1027800080618061806180618073003F001E000075
:10279000000000000000000000000000006E007F4C
:1027A000807380618061806180618073007F006ED2
:1027B0000060006000600060000000000000000099
:1027C000801D803F80738061806180618061807343
:1027D000803F801D80018001800180010000000099
:1027E0000000000000000067803F0039003000302A
:1027F00000300030003000300030000000000000E9
:1028000000000000000000000000001E803F80610A
:102810000060007F803F80018061007F001E00001B
:102820000000000000000000000800180018007FF1
:10283000007F001800180018001800180018801FEA
:10284000800F0000000000000000000000000000F9
:102850000000806180618061806180618061806151
:102860008063807F803D00000000000000000000C9
:10287000000000000000C060803180318031001B0A
:10288000001B001B000E000E0006000000000000F0
:102890000000000000000000000080DD80DD80DD21
:1028A00000550055005500770077002200220000F7
:1028B0000000000000000000000000000000806137
:1028C00000330033001E000C000C001E00330033E8
:1028D0008061000000000000000000000000000017
:1028E00080618061803100330033001B001B001BBE
:1028F000000E000E000E001C007C007000000000A6
:10290000000000000000C07FC07F800100030006BF
:10291000000C00180030C07FC07F000000000000E5
:102920008003800700060006000600060006000E71
:10293000001C001C000E0006000600060006000633
:102940008007800300060006000600060006000659
:102950000006000600060006000600060006000647
:1029600000060006000600060038003C000C000CC3
:10297000000C000C000C000E00070007000E000CFD
:10298000000C000C000C000C003C003800000000A3
:10299000000000000000000000008038807F004739
:1029A0000000000000000000000000000000000027
:1029B0000000000000000000000000000000000017
:1029C0000000000000000000000000000000000007
:1029D00000000000000000000000000000000000F7
:1029E00000000000E003E003E003E003E003E00395
:1029F000E003E003C003C003C001C001C001C00187
:102A0000C001000000000000E003E003E00300005C
:102A100000000000000000003C1E3C1E3C1E3C1E4E
:102A20003C1E3C1E3C1E0000000000000000000098
:102A30000000000000000000000000000000000096
:102A4000000000000000000000000000CE01CE03E6
:102A5000DE039E039C039C07FF3FFF7F3807380F70
:102A6000780F780F780EFFFFFFFFF01EF01CE01CC0
:102A7000E03CE03DE0390000000000000000000004
:102A8000FC03FE0FEE1FE01EE01EE01EE01EE01F36
:102A9000E00FE007F003FC01FE01FE01FE01FE0174
:102AA000FE01FE01FE3DFC3FF00FE001E0010000F1
:102AB00000000000033E07F78FE78EE79EE3BCE3CC
:102AC000B8E7F8E7F0F7E03FC001FF03FF07F307BF
:102AD000F30FF31EF33CF338F3787FF03FE0000090
:102AE0000000000000000000E007F80F780F781FDA
:102AF000781F781F780FF00FE00F801FC37FC3FB94
:102B0000E7F3F7F1F7F0FFF07FF03EF87F7CFF3F4F
:102B1000EF1F00000000000000000000E003E003E1
:102B2000E003E003E003C003C00100000000000078
:102B30000000000000000000000000000000000095
:102B40000000000000000000000000000000000085
:102B50003F007C00F001E001C003C0078007800750
:102B6000800F000F000F000F000F000F000F800FED
:102B700080078007C007C003E001F0017C003F0030
:102B80000F000000007E001FC007C003E001F0013D
:102B9000F000F000F8007800780078007800780005
:102BA0007800F800F000F000F001E001C003C00779
:102BB000001F007E00780000E003C003C001CE3992
:102BC000FF3F7F3F20037003F807780F3C1F380654
:102BD00000000000000000000000000000000000F5
:102BE00000000000000000000000000000000000E5
:102BF0000000000000000000C001C001C001C001D1
:102C0000C001C001C001FFFFFFFFC001C001C00142
:102C1000C001C001C0010000000000000000000071
:102C200000000000000000000000000000000000A4
:102C30000000000000000000000000000000000094
:102C40000000E003E003E003E003E001E001E00155
:102C5000C001800300000000000000000000000030
:102C600000000000000000000000FE3FFE3F0000EA
:102C70000000000000000000000000000000000054
:102C80000000000000000000000000000000000044
:102C90000000000000000000000000000000000034
:102CA00000000000000000000000E003E003E0037B
:102CB000E003000000000000000000000F000F0013
:102CC0001E001E003C003C0078007800F000F00080
:102CD000E001E001C003C00380078007000F000F80
:102CE000001E001E003C003C0078007800F0000050
:102CF000F007F80F7C1F3E3E1E3C1F7C1F7C0F78A8
:102D00000F780F780F780F780F780F781F7C1F7C63
:102D10001E3C3E3E7C1FF80FF00700000000000044
:102D200000000000F000F007F03FF03FF001F0017C
:102D3000F001F001F001F001F001F001F001F0010B
:102D4000F001F001F001F001F001FF3FFF3F000052
:102D50000000000000000000E00FF83F7C3C3C0059
:102D60003E003E003E003C003C007C00F800F001CC
:102D7000E003C0078007000F001E003E003CFE3F3E
:102D8000FE3F00000000000000000000F00FF81FF0
:102D90007C1C3E003E003E003C003C00F800F00F72
:102DA000F80F7C003E001E001E001E001E003E00AC
:102DB0007C1CF81FE01F0000000000000000000065
:102DC0007800F800F800F801F803F807F807780F22
:102DD000781E781E783C78787878FFFFFFFF7800BF
:102DE000780078007800780078000000000000008B
:102DF00000000000FC1FFC1FFC1F001E001E001E28
:102E0000001E001EE01FF81FFC007C003E003E007C
:102E10001E003E003E003C007C1CF81FE01F00002E
:102E20000000000000000000FC01FE078E0F001FE4
:102E3000001E003E003C003CF83DFC3F3E7F1F7EF4
:102E40000F3C0F3C0F3C0F3C0F3E1F1E3E1FFC0F64
:102E5000F00300000000000000000000FF3FFF3F03
:102E6000FF3F0F001E001E003C0038007800F000FD
:102E7000F000E001E001C003C0038007800F800F75
:102E8000000F001F001F00000000000000000000F5
:102E9000F807FC0F3E1F1E1E1E3E1E3E1E1E3C1F40
:102EA000F80FF007F80FFC1E3E3E1F3C1F7C0F7C06
:102EB0000F7C1F3C3E3FFC1FF0070000000000009D
:102EC00000000000F007F80F7C1E3E3C1E3C1F7CFB
:102ED0001F7C1F7C1F7C1F3C3F3EFF1FEF071F0016
:102EE0001E001E003E003C00F838F03FE01F0000CE
:102EF00000000000000000000000000000000000D2
:102F000000000000E003E003E003E0030000000035
:102F100000000000000000000000E003E003E00308
:102F2000E0030000000000000000000000000000BE
:102F30000000000000000000E003E003E003E00305
:102F40000000000000000000000000000000E0039E
:102F5000E003E003E003E001E001E001C0038003DF
:102F600000000000000000000000000003000F004F
:102F70003F00FC00F003C00F003F00FE003FC00F09
:102F8000F003FC003F000F00030000000000000001
:102F90000000000000000000000000000000000031
:102FA0000000000000000000FFFFFFFF0000000025
:102FB0000000FFFFFFFF0000000000000000000015
:102FC0000000000000000000000000000000000001
:102FD0000000000000E000F8007E801FE007F8011C
:102FE0007E001F007E00F801E007801F007E00F8D1
:102FF00000E000000000000000000000F01FFC3FA7
:103000003E381F381F381E001E003C007800F000BC
:10301000E001C003C003C007C007000000000000BB
:10302000C007C007C007000000000000000000004B
:10303000F803FE0F1E1F0F3E7F3CFF78EF79C7732A
:10304000C7F38FF38FF38FF39FF39FF3FF73FF7B30
:10305000F779003C1C1FFC0FF80300000000000083
:1030600000000000000000000000E003E003F007A3
:10307000F007F007780F780F7C0E3C1E3C1E3E3C9C
:10308000FE3FFF3F1F780F780FF007F007F00000BA
:103090000000000000000000000000000000F83FF9
:1030A000FC3F3E3C1E3C1E3C1E3C3E3C7C3CF03FFC
:1030B000F83F7E3C1F3C1F3C0F3C0F3C1F3CFE3F3B
:1030C000F83F0000000000000000000000000000C9
:1030D0000000FF01FF07871F003E003C007C0078D6
:1030E0000078007800780078007C007C003E003F8B
:1030F000831FFF07FF010000000000000000000028
:10310000000000000000F07FFC7F7E781F781F78B1
:103110000F780F780F780F780F780F780F780F7877
:103120001F781E787E78F87FE07F000000000000A6
:1031300000000000000000000000FF3FFF3F003ED5
:10314000003E003E003E003E003EFE3FFE3F003E91
:10315000003E003E003E003E003EFF3FFF3F0000BD
:103160000000000000000000000000000000FF1F41
:10317000FF1F001E001E001E001E001E001EFF1F5F
:10318000FF1F001E001E001E001E001E001E001E4F
:10319000001E000000000000000000000000000011
:1031A0000000FE03FF0F871F003E007C007C0078BC
:1031B00000F800F87FF87FF80F780F7C0F7C0F3E47
:1031C0008F1FFF0FFE030000000000000000000042
:1031D0000000000000001F7C1F7C1F7C1F7C1F7CE8
:1031E0001F7C1F7C1F7CFF7FFF7F1F7C1F7C1F7C41
:1031F0001F7C1F7C1F7C1F7C1F7C000000000000C8
:1032000000000000000000000000FF3FFF3FE0035F
:10321000E003E003E003E003E003E003E003E00396
:10322000E003E003E003E003E003FF3FFF3F0000B3
:103230000000000000000000000000000000FC1F73
:10324000FC1F7C007C007C007C007C007C007C00FF
:103250007C007C007C007C0078007800F838F03F2F
:10326000C03F00000000000000000000000000005F
:1032700000001F3C1E3C3C3C783CF03CE03DE03F05
:10328000C03F803FC03FE03FF03DF03C783C7C3C9D
:103290003E3C1F3C0F3C000000000000000000000E
:1032A000000000000000003E003E003E003E003EE8
:1032B000003E003E003E003E003E003E003E003E1E
:1032C000003E003E003EFF3FFF3F000000000000C8
:1032D000000000000000000000001FF81FFC1FFCA1
:1032E0003FFE3FFE3FFE7FFF77FF77FFF7F7E7F7F1
:1032F000E7F3E7F3C7F307F007F007F007F0000084
:1033000000000000000000000000000000000F7C32
:103310000F7C0F7E0F7F0F7F8F7F8F7FCF7FEF7BA5
:10332000EF79FF79FF78FF787F783F783F781F78D3
:103330001F780000000000000000000000000000F6
:103340000000F007FC1F3E3E1F7C0F780F780FF83F
:103350000FF80FF80FF80FF80FF80F780F781F7CA1
:103360003E3EFC1FF00700000000000000000000CF
:10337000000000000000FC3FFF3F1F3E0F3E0F3EDD
:103380000F3E0F3E1F3E3F3EFC3FF03F003E003EE3
:10339000003E003E003E003E003E000000000000F7
:1033A00000000000000000000000F007FC1F3E3E8F
:1033B0001F7C0F780F780FF80FF80FF80FF80FF841
:1033C0000FF80F780F781F7C3E3EFC1FF8077C003B
:1033D0003F000F0003000000000000000000F03F6D
:1033E000FC3F7E3C3E3C1E3C1E3C3E3C3C3CFC3C90
:1033F000F03FE03FF03DF83C7C3C3E3C1E3C1F3C37
:103400000F3C000000000000000000000000000071
:103410000000FC07FE1F0E3E003C003C003C003E4E
:10342000C01FF80FFE037F001F000F000F001F20BA
:103430003E3CFC3FF01F00000000000000000000C8
:10344000000000000000FFFFFFFFE003E003E003D7
:10345000E003E003E003E003E003E003E003E00354
:10346000E003E003E003E003E003000000000000ED
:10347000000000000000000000000F7C0F7C0F7CAB
:103480000F7C0F7C0F7C0F7C0F7C0F7C0F7C0F7CE4
:103490000F7C0F7C1E3C1E3C3E3EFC1FF0070000D4
:1034A000000000000000000000000000000007F025
:1034B00007F007F80F780F7C1E3C1E3C1E3E3C1E9A
:1034C0003C1F781F780FF80FF007F007F007E003B4
:1034D000E003000000000000000000000000000009
:1034E000000003E003F003F007F0E7F3E7F3E7F38E
:1034F000E773F77BF77FFF7F7F7F7F7F7E7F7E3F56
:103500003E3E3E3E3E3E0000000000000000000047
:1035100000000000000007F80F7C1E3E3E3E3C1FEE
:10352000F80FF007E007E003E003F007F80F7C0F67
:103530007C1E3E3C1F780F780FF00000000000005A
:103540000000000000000000000007F807780F7C72
:103550001E3C1E3E3C1F780FF80FF007E003E0030F
:10356000E003E003E003E003E003E003E003000026
:103570000000000000000000000000000000FF7FCD
:10358000FF7F0F001F003E007C00F800F000E0010C
:10359000E003C007800F000F001E003E007CFF7F8D
:1035A000FF7F00000000000000000000FF07800710
:1035B00080078007800780078007800780078007D3
:1035C00080078007800780078007800780078007C3
:1035D00080078007800780078007FF07FF0700003C
:1035E00000780078003C003C001E001E000F000F19
:1035F00080078007C003C003E001E001F000F00095
:10360000780078003C003C001E001E000F000F00F8
:1036100007000000F07FF000F000F000F000F00084
:10362000F000F000F000F000F000F000F000F0001A
:10363000F000F000F000F000F000F000F000F0000A
:10364000F000F07FF07F0000C000C001C001E00387
:10365000E003F007F0077807780F380F3C1E3C1E98
:103660001E3C1E3C0F380F78077800000000000059
:10367000000000000000000000000000000000004A
:10368000000000000000000000000000000000003A
:10369000000000000000000000000000000000002A
:1036A000000000000000FFFFFFFF0000000000001E
:1036B000F00000000000000000000000000000001A
:1036C00000000000000000000000000000000000FA
:1036D00000000000000000000000000000000000EA
:1036E00000000000000000000000000000000000DA
:1036F000F80FFC3F7C3C3E003E003E00FE07FE1FF4
:103700003E3E3E7C3E783E7C7E7CFF3FCF1F0000ED
:103710000000000000000000003C003C003C003CB9
:10372000003C003CF83DFE3F3E3F1F3E0F3C0F3C3F
:103730000F3C0F3C0F3C0F3C1F3C1E3C3E3FFC3FF0
:10374000F03B00000000000000000000000000004E
:103750000000000000000000FE03FF0F871F003E76
:10376000003E003C007C007C007C003C003E003EB3
:10377000871FFF0FFE030000000000000000000094
:103780001F001F001F001F001F001F00FF07FF1F5B
:103790003F3E1F3C1F7C1F7C1F7C1F781F781F7CB7
:1037A0001F7C3F3C7F3EFF1FDF0F0000000000003A
:1037B0000000000000000000000000000000000009
:1037C000F803FC0F3E1F1E3E1F3C1F7CFF7FFF7F48
:1037D000007C007C003C003E071FFF0FFE03000042
:1037E0000000000000000000FF01E103C003C0076B
:1037F000C007C007FF7FFF7FC007C007C007C00723
:10380000C007C007C007C007C007C007C007C00780
:10381000C0070000000000000000000000000000E1
:103820000000000000000000EF07FF1F7F3E1F3C6C
:103830001F7C1F7C1F781F781F781F7C1F7C3F3CDC
:103840007F3EFF1FDF0F1E001E001E007C38F83F6A
:10385000003C003C003C003C003C003CFC3DFE3F8A
:103860009E3F1F3F1F3E1F3C1F3C1F3C1F3C1F3CF9
:103870001F3C1F3C1F3C1F3C1F3C00000000000081
:1038800000000000F001F001000000000000000056
:10389000E07FE07FE001E001E001E001E001E00124
:1038A000E001E001E001E001E001E001E0010000F1
:1038B0000000000000000000F800F8000000000018
:1038C00000000000F83FF83FF800F800F800F800AA
:1038D000F800F800F800F800F800F800F800F80028
:1038E000F800F800F800F000F071E07F003C003CC8
:1038F000003C003C003C003C1F3C3E3C7C3CF83C17
:10390000F03DE03DC03FC03FE03FF03DF83C7C3C37
:103910003E3C1F3C1F3C0000000000000000000077
:10392000F07FF001F001F001F001F001F001F00191
:10393000F001F001F001F001F001F001F001F001FF
:10394000F001F001F001F001F001000000000000C2
:103950000000000000000000000000000000000067
:103960009EF7FFFFFFFFFFFFE7FBE7F9C7F1C7F196
:10397000C7F1C7F1C7F1C7F1C7F1C7F1C7F100003F
:103980000000000000000000000000000000000037
:1039900000000000FC3DFE3F9E3F1F3F1F3E1F3CBE
:1039A0001F3C1F3C1F3C1F3C1F3C1F3C1F3C1F3C3F
:1039B0001F3C0000000000000000000000000000AC
:1039C0000000000000000000F007FC1F3E3E1F3C0E
:1039D0001F7C0F780F780F780F780F781F7C1F3CB3
:1039E0003E3EFC1FF0070000000000000000000049
:1039F000000000000000000000000000F83DFE3F55
:103A00003E3F1F3E0F3C0F3C0F3C0F3C0F3C0F3C1A
:103A10001F3C1E3E3E3FFC3FF83F003C003C003C4C
:103A2000003C003C0000000000000000000000001E
:103A3000EE07FE1F7E3E1E3C1E7C1E781E781E7802
:103A40001E781E781E7C3E7C7E3EFE1FDE0F1E0012
:103A50001E001E001E001E000000000000000000EE
:103A6000000000007F1FFF1FE71FC71F871F001FE9
:103A7000001F001F001F001F001F001F001F001F4E
:103A8000001F000000000000000000000000000017
:103A90000000000000000000FC07FE1F0E1E003E9C
:103AA000003E003FE01FFC07FE003E001E001E001F
:103AB0003E3CFC3FF01F0000000000000000000042
:103AC000000000000000800780078007FF7FFF7F65
:103AD00080078007800780078007800780078007AE
:103AE00080078007C007FF03FF01000000000000FF
:103AF00000000000000000000000000000000000C6
:103B00001E3C1E3C1E3C1E3C1E3C1E3C1E3C1E3CE5
:103B10001E3C1E3C3E3C7E3CFE3EFE1FDE0F000077
:103B20000000000000000000000000000000000095
:103B30000000000007F00F780F781E3C1E3C1E3E70
:103B40003C1E3C1E780F780FF00FF007F007E003E3
:103B5000E003000000000000000000000000000082
:103B6000000000000000000003F0E3F1E3F3E7F3DE
:103B7000F7F3F7F3F77F777F7F7F7F7F7F7F3E3E8F
:103B80003E3E3E3E3E3E00000000000000000000C1
:103B90000000000000000000000000000F7C1E3E3E
:103BA0003C3E3C1FF80FF007F007E003F007F80772
:103BB000F80F7C1E3E3E1F3C1F78000000000000F6
:103BC00000000000000000000000000000000000F5
:103BD00007F80F780F7C1E3C1E3C3C1E3C1E3C1F11
:103BE000780FF80FF007F007E003E003C003C0030D
:103BF000C0038007800F007F00000000000000006D
:103C000000000000FF3FFF3F1F003E007C00F80067
:103C1000F001E003C007800F001F001E003CFF7F83
:103C2000FF7F00000000000000000000FE01E00334
:103C3000C003C003C003C003E001E001E001C00114
:103C4000C003803F803FC003C001E001E001E0010C
:103C5000C003C003C003C003E003FE017E000000F8
:103C6000C001C001C001C001C001C001C001C0014C
:103C7000C001C001C001C001C001C001C001C0013C
:103C8000C001C001C001C001C001C001C001C0012C
:103C9000C0010000C03FE003E001E001E001E001FD
:103CA000C001C003C003C001E001FE00FE00E0014E
:103CB000C001C003C003C001E001E001E001E00178
:103CC000E003C03F003F00000000000000000000D3
:103CD0000000000000000000000000000000073F9E
:103CE000C77FE773FFF17EF00000000000000000D6
:103CF00000000000000000000000000000000000C4
:103D00000000000001020304060708092C3D00081A
:103D10000000002030000000521000085C3D000848
:103D20003000002058080000621000080000000069
:103D300000000000070A0000E81400080B12000051
:103D4000541C0008101A0000B029000801000000EF
:0C3D500010000000000000000024F4003F
:04000005080001C529
:00000001FF
